:100000000C94B7030C94B11B0C948A1B0C94DF0363
:100010000C94DF030C94DF030C94E60A0C94DF03CA
:100020000C94DF030C94DF030C94DF030C94DF03C8
:100030000C94DF030C94DF030C94DF030C94DF03B8
:100040000C94401B0C94DF030C9498120C947212C5
:100050000C94DF030C94DF030C94DF030C94DF0398
:100060000C9415160C94DF0300407A10F35A00A08C
:10007000724E18090010A5D4E80000E87648170071
:1000800000E40B54020000CA9A3B000000E1F505B1
:10009000000080969800000040420F000000A086FB
:1000A00001000000102700000000E803000000002D
:1000B0006400000000000A000000000001000000D1
:1000C00000002C76D888DC674F0823DFC1DFAE59EB
:1000D000E1B1B796E5E3E453C63AE651997696E87E
:1000E000E6C28426EB898C9B62ED407C6FFCEFBC02
:1000F0009C9F40F2BAA56FA5F490055A2AF75C932D
:100100006B6CF9676DC11BFCE0E40D47FEF520E662
:10011000B500D0ED902E0300943577050080841E45
:10012000080000204E0A000000C80C333333330FA0
:10013000986E12831141EF8D2114893BE65516CF3D
:10014000FEE6DB18D1844B381BF77C1D901DA4BB49
:10015000E424203284725E228100C9F124ECA1E5FE
:100160003D2754534D3A494E49540A002154534DAA
:100170003A494E49543A545350204641494C0A009A
:1001800054534D3A494E49543A545350204F4B0A18
:100190000054534D3A465041520A002154534D3AAF
:1001A000465041523A4E4F205245504C590A002178
:1001B00054534D3A465041523A4641494C0A005434
:1001C000534D3A465041523A4F4B0A0054534D3A20
:1001D00049443A5245510A0054534D3A49440A00A1
:1001E0002154534D3A49443A4641494C0A0054532C
:1001F0004D3A49443A4F4B0A0054534D3A55504CEE
:100200000A002154534D3A55504C3A4641494C0A44
:100210000054534D3A55504C3A444757432C4F3DA8
:1002200025642C4E3D25640A0054534D3A55504CDC
:100230003A4F4B0A0054534D3A52454144593A49BA
:10024000443D25642C5041523D25642C4449533D86
:1002500025640A002154534D3A52454144593A55B8
:10026000504C204641494C2C534E500A0054534D9B
:100270003A4641494C3A5044540A0054534D3A4688
:1002800041494C3A434E543D25640A0054534D3A7B
:100290004641494C3A52452D494E49540A004D4376
:1002A0004F3A50494D3A4E4F4445205245473D251F
:1002B000640A00215453463A4D53473A52454C2064
:1002C0004D53472C4E5245500A005453463A4D5315
:1002D000473A42430A005453463A4D53473A414342
:1002E0004B0A00215453463A4D53473A504F4E471C
:1002F00020524543562C494E4143544956450A0025
:100300005453463A4D53473A504F4E472052454377
:10031000562C48503D25640A005453463A4D5347E5
:100320003A50494E4745442C49443D25642C485099
:100330003D25640A00215453463A4D53473A4650EE
:10034000415220494E4143544956450A00545346B0
:100350003A4D53473A46504152204F4B2C49443D69
:1003600025642C443D25640A005453463A4D5347B6
:100370003A41434B205245510A00215453463A4DCD
:1003800053473A505645522C25643D25640A0021B6
:100390005453463A4D53473A4C454E2C2564213D23
:1003A00025640A005453463A4D53473A5245414456
:1003B0002C25642D25642D25642C733D25642C6328
:1003C0003D25642C743D25642C70743D25642C6C93
:1003D0003D25642C73673D25643A25730A00AED52C
:1003E00080A83FD300408D142002A1C8DA12817F7B
:1003F000D9F1DB40A4A6AF5453463A5755523A4D73
:10040000533D256C750A004D434F3A42474E3A49D9
:100410004E4954204F4B2C5453503D25640A004DF7
:10042000434F3A42474E3A5354500A004D434F3AD5
:1004300042474E3A4246520A004D434F3A42474ED7
:100440003A494E4954204E4F44452C43503D524E5C
:100450004E4E412D2D2C5645523D322E312E310A15
:1004600000000005072061000000000000005F00A0
:10047000000007000700147F147F14242A7F2A122B
:10048000231308646236495522500005030000001A
:100490001C2241000041221C00082A1C2A080808CE
:1004A0003E08080050300000080808080800606096
:1004B000000020100804023E5149453E00427F40A2
:1004C0000042615149462141454B311814127F10B9
:1004D00027454545393C4A494930017109050336EC
:1004E00049494936064949291E003636000000565A
:1004F000360000000814224114141414144122146C
:1005000008000201510906324979413E7E1111115C
:100510007E7F494949363E414141227F4141221C6B
:100520007F494949417F090901013E414151327FDB
:100530000808087F00417F41002040413F017F08BB
:100540001422417F404040407F0204027F7F040824
:10055000107F3E4141413E7F090909063E4151213C
:100560005E7F09192946464949493101017F010148
:100570003F4040403F1F2040201F7F2018207F63C6
:1005800014081463030478040361514945430000CF
:100590007F4141020408102041417F000004020114
:1005A00002044040404040000102040020545454E2
:1005B000787F484444383844444420384444487F91
:1005C0003854545418087E090102081454543C7FCE
:1005D0000804047800447D40002040443D00007F32
:1005E00010284400417F40007C041804787C0804F3
:1005F000047838444444387C14141408081414183B
:100600007C7C080404084854545420043F4440208F
:100610003C4040207C1C2040201C3C4030403C445E
:10062000281028440C5050503C4464544C4400085A
:1006300036410000007F0000004136080008082A0B
:100640001C08081C2A08080006090906DE03198090
:10065000400000030C0F30333C3FC0C3CCCFF0F35D
:10066000FCFF000000080002010000030407000076
:10067000000000000000214D434F3A534E443A4ED3
:100680004F4445204E4F54205245470A0000000079
:1006900000250028002B0000000000240027002A6D
:1006A000000404040404040404020202020202031B
:1006B0000303030303010204081020408001020425
:1006C0000810200102040810205453463A534944AC
:1006D0003A4F4B2C49443D25640A00215453463A75
:1006E0005349443A4641494C2C49443D25640A004B
:1006F00025735453463A4D53473A53454E442C259F
:10070000642D25642D25642D25642C733D25642CD2
:10071000633D25642C743D25642C70743D25642C48
:100720006C3D25642C73673D25642C66743D2564FF
:100730002C73743D25733A25730A00215453463AAD
:100740005254453A46504152204143544956450A75
:1007500000215453463A534E443A544E520A004DE7
:10076000434F3A5245473A5245510A00B31F1124AC
:100770001FBECFEFD8E0DEBFCDBF12E0A0E0B1E0FA
:10078000E4EEF1E502C005900D92AC31B107D9F766
:1007900024E0ACE1B2E001C01D92A139B207E1F75B
:1007A00013E0C7EBD3E004C02197FE010E94D628D6
:1007B000C63BD107C9F70E94BA1E0C94F0280C94CE
:1007C0000000089580E090E008950F931F930E9429
:1007D000FE1A00911F0210912002209121023091F7
:1007E0002202601B710B820B930B1F910F910895D6
:1007F0009C0180911D0290911E028217930751F077
:10080000909127029F719093270230931E022093AC
:100810001D0205C080912702805E80932702E0912F
:100820001D02F0911E020190F081E02D309709F039
:1008300009950E94FE1A60931F0270932002809314
:100840002102909322020895EF92FF920F931F933B
:10085000CF93DF93CDB7DEB7C857D1090FB6F89461
:10086000DEBF0FBECDBF8E010F571F4FF801E190C5
:10087000F1908F010E94FE1AAB01BC012AE088E4CE
:1008800093E00E94D81B61EC71E088E493E00E9441
:10089000611C9801A70168E770E0CE0101960E94F3
:1008A0000B21BE016F5F7F4F88E493E00E94611CC3
:1008B00088E493E00E945711C858DF4F0FB6F894B0
:1008C000DEBF0FBECDBFDF91CF911F910F91FF9083
:1008D000EF9008952F923F924F925F926F927F9286
:1008E0008F929F92AF92BF92CF92DF92EF92FF9240
:1008F0000F931F93CF93DF93CDB7DEB72C970FB62F
:10090000F894DEBF0FBECDBFE0911D02F0911E0234
:100910000280F381E02D309709F00995809127023C
:1009200084FB332730F9398784FF5EC386E0D82EF5
:1009300090E0E92E90E0F92ECE0101969C838B8306
:1009400020EA822E26E8922EAA24A394B12C34EB1E
:10095000432E3BE2532E31E1632E712C21E041E026
:1009600060E070E087E10E94A41C80FD3DC3DA9442
:10097000DD2009F439C3E114F10421F081E090E0B5
:100980000E94000021E041E060E070E080E60E940B
:10099000A41CC82E80E28C1520F482EE0E94F41C68
:1009A000C12C21E04C2D63E674E081E60E94A41C7A
:1009B00060E487E20E94D61C80916604282F269569
:1009C000269526952A3108F029E182FD03C077E0BB
:1009D000720F01C070E28091670487708D8310915F
:1009E000680400916404209063043090650483E6F9
:1009F00094E02A877C870E9480182A8550E09F9384
:100A00008F938091660482FB882780F91F928F93D1
:100A10001F922F93809167048295869587701F920D
:100A20008F931F921F931F923D813F938091690482
:100A30001F928F931F923F921F922F921F920F939C
:100A4000A4EAB3E0BF93AF932A875B870E94240494
:100A50000FB6F894DEBF0FBECDBF7C854A855B859F
:100A6000C71679F0E114F10429F08CE690E00E94B9
:100A700000007C851F927F931F92CF928FE893E0B6
:100A800017C020916604822F83708230E1F0E11458
:100A9000F10421F08DE690E00E9400001F9282E0B8
:100AA0008F938091660483701F928F938AE793E0FF
:100AB0009F938F930E9424040F900F900F900F909C
:100AC0000F900F904BCF809128028068809328026E
:100AD00080914503381259C0822F86958695869558
:100AE0008A3108F089E1A8E08A9FC00111242770AB
:100AF000822B80936604FA01ED59FB4F1782809197
:100B0000670483FF21C089E693E09F938F930E943F
:100B1000240481E2E3E6F4E0A2E4B4E001900D9263
:100B20008A95E1F780914604877F8061809346042F
:100B300080914503809343040093440482E494E04D
:100B40000E94F21D0F900F909091670494FD0BC0CE
:100B50003D81333081F48091680421EF280F2330E8
:100B600008F055C0FBCEA6EDB2E0BF93AF930E9454
:100B700024040F900F9080E090E0892B09F4EECED2
:100B800083E694E00E940000E9CE9FEF391236C060
:100B9000AAECB2E0BF93AF930E9424040F900F9091
:100BA0003D81333031F58091270282FF03C0173039
:100BB00009F4D4CE183009F4D1CE143109F0CECED8
:100BC000809146032812CACE0E94FE1A73708827AD
:100BD00099270E94C41A1091460325E143E06FEF64
:100BE000802F0E949817612F0E94631C0E94FA1C9C
:100BF000B5CE809146032812B1CEBDCFA3EBB2E0B3
:100C0000BF93AF930E9424040F900F90A7CE14308F
:100C100029F40E941D190E94791EA0CE183021F5DA
:100C20001091270210FF1BC00E941D198F3F09F46D
:100C300095CE8F5F8F3F09F491CE9091470389172E
:100C400008F08CCE11FD8ACE8093470300934603B3
:100C50001F928F931F920F938DE493E029CF85E32A
:100C600093E09F938F93CECF1831C1F40E941D194A
:100C70001F928F931F920F9389E193E09F938F931D
:100C80000E94240429E143E06FEF802F0E9498170F
:100C900061E00E94631C0E94FA1C0ECF1931A9F476
:100CA0008091270283FF0EC0877F809327020E94D6
:100CB0001D19809329021F928F9380E093E09F93E8
:100CC0008F933AC0A3EEB2E09BCF20916404211130
:100CD00087C18D3099F480E090E0892B21F08BE082
:100CE00090E00E94000098E088E10FB6F894A89583
:100CF000809360000FBE90936000FFCF8B3119F599
:100D00000E941D1991E0811101C090E08091A40220
:100D100090FB80F98093A402E114F10421F08AE0B1
:100D200090E00E9400008091A40281701F928F9336
:100D3000AEE9B2E0BF93AF930E9424040F900F90EE
:100D40000F900F900BCE8630A9F490916A049923EE
:100D500029F081E09D3419F080E001C089858093FD
:100D6000A30241E050E063E071E083EA92E00E9478
:100D70005F27F4CD833119F40E94011EEFCD82313B
:100D8000F1F40E94E5036D837E838F83988726E1CB
:100D900043E06FEF80E00E949817FC0184818F711F
:100DA000806A848383818770806283838D819E8142
:100DB000AF81B88587839087A187B287E1C08130F2
:100DC000D9F4929596959770953049F460916A049C
:100DD00070916B0480916C0490916D040AC0911124
:100DE00005C08AE694E00E94712003C060E070E0D4
:100DF000CB010E94790DB2CD8A3009F4AFCD8C3190
:100E000009F0B9CE80916A04823509F4A7CD863500
:100E1000D9F58EE480937C0066E470E080E090E099
:100E20000E94C41A80917A00806480937A00809135
:100E30007A0086FDFCCF20907800309079002CE17C
:100E400043E06FEF80E00E9498178C01DC0114965C
:100E50008C9114978F71806614968C9314971396C7
:100E60008C9113978770806113968C93910140E069
:100E700050E0C301B2010E949828F801308727830F
:100E8000C8010E94F21D6ACD863409F059C0F89459
:100E90008FEF86BB10928500109284001092800024
:100EA00010928200909160002DE088E10FB6F894D6
:100EB000A895809360000FBE209360008091600031
:100EC000806480936000A89585E080938100809184
:100ED000600087FFFCCF10928100A8958091600090
:100EE00088618093600090936000789420908400E3
:100EF000309085002CE143E06FEF80E00E9498176E
:100F00008C01DC0114968C9114978F718066149675
:100F10008C93149713968C91139787708061139616
:100F20008C93C101A0E0B0E0BC01CD014BE0660FA5
:100F3000771F881F991F4A95D1F7A50194019BCF70
:100F40008D3401F500918D0410918E040115110569
:100F500011F401E914E02CE143E06FEF80E00E941E
:100F60009817FC0184818F718066848383818770E8
:100F7000806183838B819C81801B910B9087878309
:100F8000CF017FCF853409F0E9CC2CE143E06FEF4E
:100F900080E00E94981763E671E00E946F1C0E9437
:100FA000F21D00E010E06FEFC8010E946F270F5F95
:100FB0001F4F0D39F1E01F07B1F780E090E0892B5A
:100FC00021F08BE090E00E94000098E088E10FB6ED
:100FD000F894A895809360000FBE90936000FFCFB7
:100FE0008A3109F0C8CDBACC2C960FB6F894DEBF82
:100FF0000FBECDBFDF91CF911F910F91FF90EF906A
:10100000DF90CF90BF90AF909F908F907F906F9028
:101010005F904F903F902F9008950F931F930E94E1
:10102000E503209128022077203729F000E117E21C
:1010300020E030E004C000E61AEE20E030E00617C1
:1010400017072807390770F48CE892E09F938F9375
:101050000E9424040F900F908CE191E01F910F915A
:101060000C94F8031F910F91089580912802982FF6
:101070009077903759F0982F92959F709F5F977057
:101080009295907F8F78892B8093280280912802F7
:10109000829587701F928F938BE792E09F938F9337
:1010A0000E942404809127028B7F8F7E80932702E9
:1010B0000F900F900F900F9080E090E0892B21F01F
:1010C00087E690E00E9400008DE692E09F938F9368
:1010D0000E94240429980F900F906CE080E20C94F9
:1010E000D61C809128028F70863060F084E592E0F3
:1010F0009F938F930E9424040F900F9088E191E0BA
:101100000C94F8030895809147031F928F93809168
:1011100046031F928F93809145031F928F9385E31F
:1011200092E09F938F930E94240480912702846011
:101130008093270280912802807880932802E09192
:101140002A02F0912B028DB79EB708960FB6F8943D
:101150009EBF0FBE8DBF309709F00994089580910E
:1011600029028F3F79F10E94FE1A60932302709347
:101170002402809325029093260289E292E09F93B5
:101180008F930E94240490912902809147030F902D
:101190000F909817A1F01F929F931F928F9381E158
:1011A00092E09F938F930E94240480912902809360
:1011B00047030F900F900F900F900F900F9084E1C6
:1011C00091E025C00E94E503613D774081059105CE
:1011D00000F180912702803618F480E191E017C079
:1011E00082E092E09F938F930E94240480912702D3
:1011F000877F809327020F900F9080E090E0892BEB
:1012000021F08AE690E00E94000088E191E00C94D1
:10121000F803089589EF91E09F938F930E9424042F
:101220000F900F9080E090E0892B21F088E090E013
:101230000E9400008FEF809329028091270288602E
:101240008093270228E143E06FEF80E00E94981727
:1012500061E00E94631C0C94FA1C809145038F3F4F
:1012600099F08EEE91E09F938F930E9424040F904B
:101270000F9080E090E0892B21F087E090E00E94C1
:10128000000080E191E020C00E94E503613D7740CD
:1012900081059105D8F080912702803618F48CE002
:1012A00091E012C080EE91E09F938F930E942404FE
:1012B0000F900F9080E090E0892B21F089E690E07C
:1012C0000E94000088E091E00C94F803089588EDF6
:1012D00091E09F938F930E9424040F900F90809130
:1012E00045038F3FE1F480E090E0892B21F086E018
:1012F00090E00E9400008CEC91E09F938F930E94FD
:10130000240423E043E06FEF80E00E9498176FEE23
:1013100071E00E946F1C0F900F900C94FA1C0895BE
:101320000E94E503613D77408105910520F480919D
:10133000270281FF0895809146038F3FC1F08FEB14
:1013400091E09F938F930E942404809127028E7FC7
:10135000809327020F900F9080E090E0892B21F07E
:1013600085E090E00E9400008CE091E021C0809137
:101370002702803658F48BE991E09F938F930E9467
:1013800024040F900F9088E191E012C08FEA91E061
:101390009F938F930E9424040F900F9080E090E021
:1013A000892B21F088E690E00E94000088E091E01F
:1013B0000C94F80381E991E09F938F930E94240499
:1013C0000F900F9080E090E0892B21F084E090E076
:1013D0000E94000080912702897F8160809327020C
:1013E0008FEF809347038093460327E043E06FEF3E
:1013F0000E9498176FEE71E00E946F1C0C94FA1C0B
:10140000CF93219A229ACFB7F89480911C02811130
:1014100024C0EBEAF6E08491EFEBF6E09491E82F3C
:10142000F0E0EE0FFF1FE956F94FA591B491EC9152
:10143000E92321F461E08AE00E94521A8AE00E94C6
:1014400061188CB580618CBD8CB580648CBD8DE0DD
:101450000E9461188BE00E94611880911C028F5FCE
:1014600080931C02CFBF29982A9A6EE080E20E94E6
:10147000D61C65E070E080E090E00E94C41A63E052
:1014800083E20E94D61C6FE584E20E94D61C6CE4C5
:1014900085E20E94D61C67E286E20E94D61C63E7C2
:1014A00080E50E94D61C66E08DE30E94D61C21E0F8
:1014B00041E060E070E086E00E94A41CC82F21E0BB
:1014C00041E060E070E085E00E94A41C8C3409F0EB
:1014D00049C0C73209F046C062E082E20E94D61CD1
:1014E00060E081E20E94D61C63E08CE30E94D61C7F
:1014F0008FEF8093030120E045E063E071E08BE231
:101500000E94A41C20E045E063E071E08AE20E94B2
:10151000A41C20E045E063E071E080E30E94A41C8D
:1015200082EE0E94F41C81EE0E94F41C60E787E2C8
:101530000E94D61C80E891E09F938F930E94240420
:1015400080912702806180932702809145030F904C
:101550000F908F3FC1F00E94791E811114C088E066
:1015600091E013C08CE691E09F938F930E94240436
:101570000F900F9080E090E0892B89F387E690E050
:101580000E940000ECCF88E191E0CF910C94F80329
:1015900082E691E09F938F930E942404E7E2F2E0B9
:1015A0008081877F8F7E8083109223021092240295
:1015B00010922502109226020F900F9043E050E007
:1015C00060E070E085E493E00C944F271F920F9247
:1015D0000FB60F9211240F900FBE0F901F90189509
:1015E0004F925F926F927F928F929F92AF92BF9233
:1015F000CF92DF92EF92FF921F93CF93DF93CDB7FD
:10160000DEB727970FB6F894DEBF0FBECDBF0E949E
:10161000FE1A4B015C018091560290915702A091F5
:101620005802B0915902A5019401281B390B4A0BAD
:101630005B0BDA01C90181369A4EA105B10508F4A8
:1016400096C08092560290925702A0925802B09291
:1016500059020E94201A6B017C0160935202709320
:10166000530280935402909355029B01AC010E9457
:101670007328882329F086E691E00E943F1A30C043
:1016800020914E0230914F024091500250915102F0
:10169000C701B6010E942B26882311F1C0924E0289
:1016A000D0924F02E0925002F09251028091F403E6
:1016B000877088628093F4038091F503806E809335
:1016C000F503C092F803D092F903E092FA03F09286
:1016D000FB0381E08093FC0381EF93E00E9470198B
:1016E0000E94001A6B017C0160934A0270934B02C6
:1016F00080934C0290934D029B01AC010E94732891
:10170000882329F08DE891E00E943F1A30C0209193
:101710004602309147024091480250914902C70168
:10172000B6010E942B26882311F1C0924602D09266
:101730004702E0924802F0924902809115048770B6
:1017400088628093150480911604806E809316043D
:10175000C0921904D0921A04E0921B04F0921C0467
:1017600081E080931D0482E194E00E947019209131
:1017700045028091410290914202A0914302B091B2
:10178000440221110EC0A5019401281B390B4A0BFC
:101790005B0BDA01C90181319742A105B10570F4F3
:1017A0001BC0A5019401281B390B4A0B5B0BDA0106
:1017B000C90181389E4EA643B10570F00E944619BA
:1017C00081EB91E00E943F1A809241029092420286
:1017D000A0924302B092440280913D0290913E0259
:1017E000A0913F02B0914002A5019401281B390B42
:1017F0004A0B5B0BDA01C901893E9340A105B10593
:1018000008F427C1CE0101960E94CA1240E060E0B0
:1018100083E394E00E94181482E080933C046EEB12
:1018200071E083E394E00E94611C4D8150E060E030
:1018300070E02AE083E394E00E94D81B63EC71E03F
:1018400083E394E00E94611C4E8150E060E070E010
:101850002AE083E394E00E94D81B43E060E083E346
:1018600094E00E94181460EC71E083E394E00E941D
:10187000611C8B8190E00E94431765EC71E083E36B
:1018800094E00E94611C8A8190E00E94431765ECFD
:1018900071E083E394E00E94611C898190E00E94E2
:1018A00043170E94201A6B017C010E94001A2B0131
:1018B0003C018091F403877088628093F4038091E7
:1018C000F503806E8093F503C092F803D092F9037C
:1018D000E092FA03F092FB0311E01093FC0381EF16
:1018E00093E00E947019809115048770886280933C
:1018F000150480911604806E80931604409219049A
:1019000050921A0460921B0470921C0410931D04E0
:1019100082E194E00E94701945E060E083E394E086
:101920000E94181467EC71E083E394E00E94611C4C
:10193000A7019601C701B6010E947328882319F0F8
:101940006BEC71E01AC026013701E89477F82FEFAD
:101950003FEF4FE75FE7C301B2010E947328811197
:1019600011C02FEF3FEF4FE75FE7C301B2010E94C5
:101970002B2618163CF46FEC71E083E394E00E9490
:101980005D125FC02FEF3FEF4FE75FE4C701B60185
:101990000E946E2818161CF463ED71E0EECF2FEF55
:1019A0003FEF4FE75FECC701B6010E942B2687FD92
:1019B000F3CF20E030E0A901C701B6010E942B2639
:1019C00087FF09C06DE283E394E00E94211CF7FACF
:1019D000F094F7F8F0942DEC3CEC4CE45DE3C70197
:1019E000B6010E94D3272B013C010E943F286B01C6
:1019F0007C010E9430269B01AC01C301B2010E9410
:101A0000D2272B013C012AE0B701A60183E394E031
:101A10000E94D81B6EE283E394E00E94211C20E028
:101A200030E040E251E4C301B2010E9491260E94DD
:101A30003F28AB0160E070E02AE083E394E00E947D
:101A4000D81B80923D0290923E02A0923F02B0923B
:101A5000400227960FB6F894DEBF0FBECDBFDF91D0
:101A6000CF911F91FF90EF90DF90CF90BF90AF90FC
:101A70009F908F907F906F905F904F9008950F93FD
:101A80001F93CF93DF93EC01062F142F8E858131A6
:101A900020F4882329F0411103C00E94A7171E8655
:101AA0008E85811113C08D8591E0909321038093E1
:101AB00043031092220310924403112311F060E4B7
:101AC00001C060E085EE93E00E942E12602F85EE4B
:101AD00093E00E942E12123021F48E858F5F8E8744
:101AE00003C00E94A7171E86DF91CF911F910F910F
:101AF00008952F923F924F925F926F927F928F92B2
:101B00009F92AF92BF92CF92DF92EF92FF920F938C
:101B10001F93CF93DF9300D000D01F92CDB7DEB7D5
:101B20004B015C0167ED71E088E493E00E94611C69
:101B30002AE0B501A40188E493E00E94D81B6DEE71
:101B400071E088E493E00E945D126CE3C62ED12C14
:101B5000E12CF12CC501B401A70196010E9498283F
:101B6000162F762ECA01B901A70196010E94982866
:101B70006D83662ECA01B90128E130E040E050E0F3
:101B80000E94982869017A01062FCA01B9016C5F89
:101B90007F4F8F4F9F4F27E030E040E050E00E94A2
:101BA00098286F5F6983812C912C54011C82E0E995
:101BB000F1E09C81292E312C91012E54384F2901BE
:101BC000A3E04A2255244114510491F4C90164E66A
:101BD00070E00E948428892B31F4C901BF010E9462
:101BE0008428892B29F48EE691E0A0E0B0E004C0BF
:101BF0008DE691E0A0E0B0E0880E991EAA1EBB1E03
:101C0000D501C401AA27BB27C816D906EA06FB06D8
:101C100020F08C818F5F8C83CCCF4114510499F4D8
:101C2000C90164E670E00E948428892B39F4C90157
:101C300060E971E00E948428892B29F48EE691E006
:101C4000A0E0B0E004C08DE691E0A0E0B0E0881A2A
:101C5000990AAA0ABB0AD701C60188199909AA09D3
:101C6000BB094C015D01C90164E670E00E94842853
:101C7000FC01C90160E971E00E948428A5E2B1E09D
:101C800020E0213041F44114510449F4309729F403
:101C9000009729F402C04C9103C04DE101C04CE112
:101CA00050E060E070E084169506A606B70640F0A6
:101CB000841A950AA60AB70A2F5F11962C3009F7E5
:101CC000DD24D394D20ECC24C394C80C85E0829D2D
:101CD0007001839DF00C1124F594E794F594E7943A
:101CE000C701049647E0442E512CB2010E9484287B
:101CF0005FE1A52EB12C4501881A990AC4012B83F6
:101D00000E94281CC7010196B2010E948428A81ACB
:101D1000B90AC5010E94281C2B812350263088F067
:101D200093E0D91206C08C2D90E0881599056CF0CF
:101D300008C0AAE0DA1209C08C2D90E0A816B906F6
:101D400024F081E080933C0202C010923C0260913A
:101D50003C026F5F060FBB24B394B092210388E668
:101D6000E82EE0924303109222031092440360E0B5
:101D700085EE93E00E942E129AE0F92E872D6F2DAA
:101D80000E947828682F660F860F682F660F610FF4
:101D900085EE93E00E942E12862D6F2D0E947828EA
:101DA000682F660F860F682F660FBD816B0F85EE5B
:101DB00093E00E942E12802F6F2D0E947828682FAA
:101DC000660F860F682F660F600F85EE93E00E9406
:101DD0002E12698185EE93E00E942E128C2D6F2DBC
:101DE0000E947828682F660F680F660F6C0D85EECD
:101DF00093E00E942E128D2D6F2D0E947828682F5F
:101E0000660F680F660F6D0D85EE93E00E942E122F
:101E10002C812E51822F6F2D0E947828682F660FFB
:101E2000860F880F682F620F85EE93E00E942E12B6
:101E30000E94A717B0922103E0924303109222035D
:101E4000109244036FE085EE93E00E942E120E94F0
:101E5000A71781110DC061E088E60E941D1810923D
:101E6000A6028093A50285EE93E00E94B0118A83BA
:101E700011E01093210388E680934303109222031C
:101E8000109244036FE085EE93E00E942E126A8167
:101E90006F7785EE93E00E942E120E94A717109391
:101EA00045020F900F900F900F900F90DF91CF9100
:101EB0001F910F91FF90EF90DF90CF90BF90AF9068
:101EC0009F908F907F906F905F904F903F902F905A
:101ED00008952BE043E06FEF80E00E94981760EFD9
:101EE00071E00E946F1C0E94F21D2CE043E06FEF36
:101EF00080E00E9498176AE072E00E946F1C0E94C6
:101F0000F21D67E080E00E94301966E081E00C94E9
:101F100030198F929F92AF92BF92CF92DF92EF9241
:101F2000FF920F931F930E949E1A80E293E1909379
:101F30003B0280933A028090360290903702A09044
:101F40003802B09039028092320290923302A0920D
:101F50003402B09235020E94FE1A00912E021091B6
:101F60002F022091300230913102AB01BC01401BA5
:101F7000510B620B730BC0903602D0903702E09089
:101F80003802F0903902483E534061057105E0F097
:101F90008FEFC81AD80AE80AF80AC0923602D0921F
:101FA0003702E0923802F0923902D901C801885113
:101FB0009C4FAF4FBF4F80932E0290932F02A09360
:101FC0003002B0933102C7CFC814D904EA04FB042D
:101FD00008F44AC00E94201361157105810591051E
:101FE00039F16093360270933702809338029093F0
:101FF0003902DC01CB01845D9E4FAF4FBF4F809310
:10200000320290933302A0933402B093350282E0FF
:1020100090E090932D0280932C020E94FE1A609310
:102020002E0270932F0280933002909331021CC0D5
:10203000FCE2CF0EF1E0DF1EE11CF11CC092320287
:10204000D0923302E0923402F092350281E090E0C7
:1020500020912C0230912D02232B11F480E090E08E
:1020600090932D0280932C020E9446190E949E1A82
:10207000109241048CE38093400410923704109234
:102080003804ECE4F6E085919491C82EEEE4F6E095
:10209000D490EFE4F6E0E491E0933904E0E5F6E073
:1020A000E491E0933A04E1E5F6E0E491E0933B0447
:1020B0007C018E2D8C198D1550F4F701649183E30A
:1020C00094E00E94F813FFEFEF1AFF0AF2CF10928C
:1020D0003D040E94521981E694E090933F0480935E
:1020E0003E041F910F91FF90EF90DF90CF90BF9033
:1020F000AF909F908F900C945219CF92DF92EF92F5
:10210000FF920F931F93CF93DF936C017A018B01A2
:10211000C0E0D0E0CE15DF0589F0D8016D918D01CA
:10212000D601ED91FC910190F081E02DC601099559
:10213000892B11F47E0102C02196ECCFC701DF91FB
:10214000CF911F910F91FF90EF90DF90CF90089566
:10215000FC01538D448D252F30E0842F90E0821BAD
:10216000930B541710F0CF96089501970895FC0132
:10217000918D828D981761F0828DDF01A80FB11DBE
:102180005D968C91928D9F5F9F73928F90E00895E2
:102190008FEF9FEF0895FC01918D828D981731F09C
:1021A000828DE80FF11D858D90E008958FEF9FEFF0
:1021B0000895FC01918D228D892F90E0805C9F4FC6
:1021C000821B91098F739927089588E493E00E94F8
:1021D000D91021E0892B09F420E0822F0895FC0119
:1021E000848DDF01A80FB11DA35ABF4F2C91848DA0
:1021F00090E001968F739927848FA689B7892C93D5
:10220000A089B1898C9180648C93938D848D98136F
:1022100006C00288F389E02D80818F7D8083089538
:10222000EF92FF920F931F93CF93DF93EC0181E026
:10223000888F9B8D8C8D981305C0E889F9898081E2
:1022400085FD24C0F62E0B8D10E00F5F1F4F0F731E
:102250001127E02E8C8DE8120CC00FB607FCFACFC8
:10226000E889F989808185FFF5CFCE010E94EF10C2
:10227000F1CF8B8DFE01E80FF11DE35AFF4FF08285
:102280000B8FEA89FB898081806207C0EE89FF8914
:102290006083E889F98980818064808381E090E0AF
:1022A000DF91CF911F910F91FF90EF900895CF9301
:1022B000DF93EC01888D8823C9F0EA89FB8980814E
:1022C00085FD05C0A889B9898C9186FD0FC00FB620
:1022D00007FCF5CF808185FFF2CFA889B9898C9161
:1022E00085FFEDCFCE010E94EF10E7CFDF91CF91B8
:1022F000089580E090E0892B29F00E94E51081117B
:102300000C9400000895982F92959F702AEF929F49
:10231000800D11240895CF93DF93EC019C818E8171
:10232000981758F4E881F9810084F185E02D42E0A6
:10233000CE0109958C818F5F8C83DF91CF910895B9
:102340000895E091A6028091A502E81730F4F0E02C
:10235000E652FD4F808190E008958FEF9FEF089542
:102360009091A6028091A502981750F4E92FF0E011
:10237000E652FD4F208130E09F5F9093A60202C09D
:102380002FEF3FEFC90108958091A50290E02091C1
:10239000A602821B9109089585ED8093BC0080916F
:1023A000BC0084FDFCCF10922003089540917C0274
:1023B000262F30E0240F311D21323105DCF420912D
:1023C00020032430C9F4FC0180E090E0861758F423
:1023D00030917C022191DC01A65ABD4FA30FB11DA3
:1023E0002C930196F3CF80917C02680F60937C025E
:1023F00080E0089581E0089582E00895CF92DF9211
:10240000EF92FF920F931F93CF93DF937C01262FC0
:10241000972F8A0180912103882391F0C62FD72F0F
:102420006E01C40ED51ECC15DD0571F06991D70182
:10243000ED91FC910190F081E02DC7010995F3CF5A
:10244000642F822F0E94D611C801DF91CF911F9176
:102450000F91FF90EF90DF90CF900895CF93DF938F
:102460001F92CDB7DEB76983209121032223D1F0DB
:1024700020914403203240F021E030E0FC0133831E
:10248000228380E090E015C080912203E82FF0E0E5
:10249000ED5DFC4F998190838F5F80932203809341
:1024A000440305C061E0CE0101960E94D61181E08F
:1024B00090E00F90DF91CF9108956115710579F04B
:1024C000FB0101900020E9F73197AF01461B570B44
:1024D000DC01ED91FC910280F381E02D099480E014
:1024E00090E008951F920F920FB60F9211242F9330
:1024F0003F934F935F936F937F938F939F93AF938C
:10250000BF93EF93FF9388E493E00E94EF10FF9155
:10251000EF91BF91AF919F918F917F916F915F915B
:102520004F913F912F910F900FBE0F901F901895D4
:102530001F920F920FB60F9211242F938F939F9398
:10254000EF93FF93E0915803F09159038081E0915C
:102550005E03F0915F0382FD12C090818091610360
:102560008F5F8F7320916203821751F0E0916103B6
:10257000F0E0E85BFC4F958F8093610301C08081A0
:10258000FF91EF919F918F912F910F900FBE0F9020
:102590001F901895CF93DF93EC0181E08093210386
:1025A00088E680934303109222031092440360E074
:1025B00085EE93E00E942E120E94A717882319F03F
:1025C0008093A1023AC067E070E088E690E00E9444
:1025D000891985EE93E00E94B0118F770E948311D4
:1025E000888385EE93E00E94B0110E948311898355
:1025F00085EE93E00E94B0118F7B0E9483118A8345
:1026000085EE93E00E94B0118B8385EE93E00E94EB
:10261000B0110E9483118C8385EE93E00E94B0116B
:102620008F770E9483118D8385EE93E00E94B01115
:102630000E948311825E8E8380E0DF91CF910895A6
:102640004F925F926F927F92AF92BF92CF92DF9242
:10265000EF92FF920F931F93CF93DF93CDB7DEB727
:1026600027970FB6F894DEBF0FBECDBFCE010196FF
:102670000E94CA128111A4C01F81A12FB0E020E8DE
:1026800033E341EE51E00E9481272B013C01E2EB54
:10269000F7E09D0104E610E080E9E82EFF24F394C2
:1026A000CF01825B974082179307D4F4CF018370E8
:1026B0009927892B99F4CF01B8010E948428892B8E
:1026C00031F4CF01B7010E948428892B39F480E8C6
:1026D000480E81E5581E81E0681E711C3196E0CFDE
:1026E0000E8110E02E54384FC90164E670E00E945C
:1026F00084287C01C90160E971E00E9484286C0192
:10270000E1E0F0E0590183E0A822BB24E017F107E3
:102710002CF5E230F10589F4A114B10471F4E1144F
:10272000F10419F4C114D10441F480E8480E8BE39C
:10273000581E86E2681E711C0FC0DF01AC5DBE4FE3
:10274000AC91B0E020E831E541E050E00E94812703
:10275000460E571E681E791E3196D8CF4A812B81AE
:1027600030E0A0E1BEE00E94C3276B017C01242F72
:1027700030E0ACE3B0E00E94C327DC01CB018C0D5C
:102780009D1DAE1DBF1D29816C017D01C20ED11C96
:10279000E11CF11CAD81B0E0119720E831E541E08A
:1027A00050E00E94BA28DC01CB018C0D9D1DAE1DAE
:1027B000BF1DBC01CD01640D751D861D971D03C095
:1027C00060E070E0CB0127960FB6F894DEBF0FBE35
:1027D000CDBFDF91CF911F910F91FF90EF90DF90D0
:1027E000CF90BF90AF907F906F905F904F90089583
:1027F000DC01ED91FC910084F185E02D40E009942D
:102800000F931F93CF938C01FC0164839085C62F97
:10281000C90F6C2F6F70C8010E94F8136C2F62955E
:102820006F706061C801CF911F910F910C94F813E4
:102830000F931F93CF93DF931F92CDB7DEB78C0119
:10284000FC018681681728F4C80149830E9400149E
:102850004981F8018781869586958695481758F4B1
:102860004583642F606BC8010F90DF91CF911F915A
:102870000F910C94F8130F90DF91CF911F910F914E
:102880000895CF92DF92EF92FF920F931F93CF9311
:10289000DF93EC01F62EC42ED22E8F81869586957D
:1028A0008695081710F00FEF080F1D2D011780F007
:1028B000412F6F2DCE010E941814EF2CCE1430F052
:1028C00060E0CE010E948B11E394F8CF1F5FEECF42
:1028D0004D2D6F2DCE01DF91CF911F910F91FF9064
:1028E000EF90DF90CF900C9418142F923F924F925C
:1028F0005F926F927F928F929F92AF92BF92CF9290
:10290000DF92EF92FF920F931F93CF93DF93CDB798
:10291000DEB727970FB6F894DEBF0FBECDBFDC0140
:102920001B960D911C911C970115110509F462C1AC
:102930009F838E83F801B4913196449131965490DF
:102940003196A491EA2EF12CF7E0EF0EF11C23E072
:10295000F594E7942A95E1F7EB82F80134967491A7
:102960003196E491671758F0862F90E02E2F30E0D3
:10297000F901E70FF11D8E179F070CF473C06D303E
:1029800069F4AE81BF8116968C91882309F467C0E3
:1029900060E08E819F810E94001461C06A3009F05E
:1029A00029C1EE81FF8181856581D62E8E9DD00C57
:1029B00011248781869586958695D81630F0828574
:1029C000882319F082E08287D12C4D2D60E08E8122
:1029D0009F810E941814AE81BF811A968C911A971C
:1029E000823008F43CC015962C9115971B96ED91FA
:1029F000FC911C97309741F03396E49119960C9115
:102A0000E09FE02D112401C0E0E08FEF820F0E2F38
:102A100010E0095F1F4F93E0159507959A95E1F730
:102A2000080FEE81FF81468141506481CF010E94F1
:102A30004114AE81BF8119968C9119976D2D8E9D91
:102A4000600D1124660F660F660F17968C9186171E
:102A500008F460E060648E819F810E94F81381E039
:102A600090E0CAC050E05B2BC8010696671BEE8160
:102A7000FF81F185F9834230510588F4452B09F037
:102A800019825E9C90015F9C300D1124629F800131
:102A9000639F100D1124080F191F412C24C0EA2F29
:102AA000E77021F048E0442E4E1A01C0412CA82FB7
:102AB000FC0140E050E07E2F7A1B761728F47491D9
:102AC000470F511D3196F7CFFC01E60FF11D5490D1
:102AD0004E9D80014F9D100D5E9D100D1124020F23
:102AE000131F080F191FAE81BF811496BC91BC83C0
:102AF000EE81FF813580652C712CCC24C394D12CC0
:102B0000812C912C7FEF7C0D7A838B81781708F0D4
:102B10005FC0212CAE81BF8119968C91281608F0D8
:102B200051C07A81711102C0222051F0AE81BF8163
:102B300015964C9115974F5F6C81CD010E9418142A
:102B4000A12CB12CA51488F5F501E80DF91DE00FB5
:102B5000F11F2491442061F0CE14DF0449F4E22FE8
:102B6000F0E0042C02C0F595E7950A94E2F72E2FC9
:102B7000EE81FF818185823079F4E22F2110E29588
:102B8000EF70F0E0EE5AF94F2491622F8E819F8111
:102B90002D830E948B112D81622F8E819F810E9437
:102BA0008B11FFEFAF1ABF0ACDCFB12C7981B716C9
:102BB00039F060E08E819F810E948B11B394F6CF33
:102BC0002394A8CF860C971CBFEFCB1ADB0A9ACFB1
:102BD000AE81BF8117968C911797869586958695BD
:102BE000381608F03CCF15963C921597632D606B14
:102BF000CD0133CF80E090E027960FB6F894DEBF8A
:102C00000FBECDBFDF91CF911F910F91FF90EF903D
:102C1000DF90CF90BF90AF909F908F907F906F90FC
:102C20005F904F903F902F9008951F920F920FB694
:102C30000F9211242F933F934F935F936F937F9342
:102C40008F939F93AF93BF93EF93FF938091B900BE
:102C5000887F803609F49CC068F5883209F45BC02F
:102C600090F4803109F454C038F4882309F4F6C094
:102C7000883009F44DC0F6C0883109F44CC0803268
:102C800009F45DC0EFC0803409F468C048F48033B3
:102C900009F455C0883309F0E5C080931E03D8C0FD
:102CA000803509F44FC0883509F45DC0883409F0D7
:102CB000D9C0D6C0883909F4C7C0A8F4883709F448
:102CC00067C038F4883609F463C0803709F460C0FF
:102CD000C9C0883809F4B8C0803909F45FC08038A9
:102CE00009F0C0C05BC0803B09F486C038F4803A6C
:102CF00009F466C0883A09F47FC0B4C0803C09F486
:102D0000A7C0883C09F4A4C0883B09F48AC0AAC0C3
:102D10008091FB0210C090911D0380911C039817B5
:102D200070F5E0911D0381E08E0F80931D03F0E0AC
:102D3000E450FD4F80818093BB0085EC86C080937A
:102D40001E038EC0E0911D0381E08E0F80931D0352
:102D50008091BB00F0E0E450FD4F808390911D0313
:102D600080911C036EC0E0911D0381E08E0F809363
:102D70001D038091BB00F0E0E450FD4F8083809103
:102D80001F0381116DC081E08093FA0284EA61C063
:102D900083E0809320031092A002CFCF8091A00205
:102DA000803208F051C0E091A00281E08E0F809344
:102DB000A0028091BB00F0E0E058FD4F8083BDCFC2
:102DC00085EC8093BC00109220038091A002803299
:102DD00030F4E091A002F0E0E058FD4F10826091E5
:102DE000A00270E0E0917E02F0917F0280E892E024
:102DF00009951092A00236C084E0809320031092BF
:102E00007D0210927C02E0917A02F0917B0209959A
:102E100080917C02811105C081E080937C02109238
:102E20005A02E0917D0281E08E0F80937D02F0E0F6
:102E3000E65AFD4F80818093BB0090917D02809186
:102E40007C02981708F479CF85E88093BC000AC00B
:102E500085EC8093BC001092200304C010921E03E6
:102E60000E94CC11FF91EF91BF91AF919F918F91F3
:102E70007F916F915F914F913F912F910F900FBE76
:102E80000F901F901895CF92DF92EF92FF926C01F6
:102E90008AE0C816D1042CF460E383E394E00E9436
:102EA000211C0D2C000CEE08FF08F7FE0EC06DE291
:102EB00083E394E00E94211C44275527BA014C1952
:102EC0005D096E097F092AE003C02AE0B701A60167
:102ED00083E394E0FF90EF90DF90CF900C94D81BA9
:102EE0003FB7F8948091890490918A04A0918B0453
:102EF000B0918C0426B5A89B05C02F3F19F0019610
:102F0000A11DB11D3FBFBA2FA92F982F8827820F6F
:102F1000911DA11DB11DBC01CD0142E0660F771FBF
:102F2000881F991F4A95D1F7089508950E94DC28BB
:102F3000E2E4F4E0909145039183828366832583E4
:102F400047708481807E482B4483CF01089520916F
:102F5000440390914303213208F04AC0809120033A
:102F60008111FCCF32E03093200331E030931F0316
:102F70003FEF30931E0310921D0320931C03A3E226
:102F8000B3E04CEF52E0FA013E2F341B321718F435
:102F90003D913193F9CF1092FB022091FB02990FE2
:102FA000922B9093FB029091FA02913061F410926F
:102FB000FA029091FB029093BB009091BC0093FDAC
:102FC000F8CF95EC01C095EE9093BC009091200352
:102FD0009230E1F390911E039F3F79F080911E03A0
:102FE000803241F080911E03803331F084E005C0CF
:102FF00081E003C082E001C083E0109222031092BE
:103000004403109221030895CF93C82F81E0809349
:10301000210380E48093430310922203109244031F
:1030200063E085EE93E00E942E126C2F85EE93E014
:103030000E942E12CF910C94A7179091200391110A
:10304000FCCF91E09093200390931F032FEF2093E8
:103050001E0310921D03260F20931C039093FB0266
:103060009091FB02880F892B8093FB028091FA02DA
:10307000813061F41092FA028091FB028093BB00D0
:103080008091BC0083FDF8CF85EC01C085EE809374
:10309000BC00809120038130E1F380911D038617ED
:1030A00010F460911D03ACEFB2E02AED32E0F901BB
:1030B0008E2F821B861718F48D918193F9CF862F5E
:1030C000089590E0FC01EB54F94F2491FC01EF5579
:1030D000F94F8491882399F090E0880F991FFC01A3
:1030E000E956F94FA591B491FC01E357F94F859149
:1030F00094918FB7F894EC91E22BEC938FBF0895E5
:103100000F931F93CF93DF93EC018C81829586956B
:10311000877091F44B8146954695469550E0BE01E7
:10312000695F7F4F87EA92E00E94E128EB81E69594
:10313000E695E695F0E077C0813031F48F814AE082
:1031400067EA72E090E007C0823041F44AE067EA43
:1031500072E08F8198850E94982068C0833041F486
:103160004AE067EA72E08F8198850E94F1205EC094
:10317000843051F46F81788589859A852AE047EA01
:1031800052E00E94A32052C0853051F46F817885AF
:1031900089859A852AE047EA52E00E94CF2046C0FE
:1031A000873071F42B85293008F028E06F8178850D
:1031B00089859A8507EA12E042E00E94332036C0F2
:1031C0008630A1F520E0EB81E695E695E6952E1791
:1031D00038F5E22FF0E0AF01440F551FDA01A95591
:1031E000BD4FEC0FFD1F8781082E000C990B34E0BA
:1031F000959587953A95E1F78F708A3010F4805D48
:1032000001C0895C8C93DA01A855BD4F87818F700E
:103210008A3010F4805D01C0895C8C932F5FD3CF1E
:10322000F0E0EE0FFF1FE955FD4F108287EA92E0B4
:10323000DF91CF911F910F9108958091670482953E
:1032400086958770813019F480916A040895811100
:1032500005C08AE694E00E945320089580E0089516
:10326000CF93DF93262F8F3F19F0CFEED1E002C02E
:10327000CFE0D2E040E0682F80E00E949817BE01C6
:103280000E946F1CDF91CF910C94F21D21E043E06E
:103290006FEF80E00E9498176FEE71E00E946F1C44
:1032A0000C94F21D0F9300913A040695069506952D
:1032B000015040913904415020E060E083E394E004
:1032C0000E94411481E090913D04911101C080E081
:1032D00080933D0460E483E394E00F910C94F81331
:1032E000FC018091450381839481907F9160948358
:1032F0008091A40280FF03C0CF010C94F21D86E7E9
:1033000096E09F938F930E9424040F900F9080E08B
:103310000895613208F060E20E941D181092A60222
:103320008093A50208950F931F93CF93DF9300D04E
:1033300000D000D0CDB7DEB78E010F5F1F4F86E003
:10334000F80111928A95E9F781E08093210380E4E6
:1033500080934303109222031092440361E085EEB0
:1033600093E00E942E120E94A71763E070E080E4B1
:1033700090E00E9489199091A5028091A602981769
:1033800049F085EE93E00E94B011F801819391938A
:103390008F01F1CF80E090E09B812D813E81822BD7
:1033A000932B26960FB6F894DEBF0FBECDBFDF91EC
:1033B000CF911F910F91089581E08093210380E4C4
:1033C00080934303109222031092440360E085EE41
:1033D00093E00E942E120E94A71761E070E080E443
:1033E00090E00E94891980E02091A5029091A602A8
:1033F000291729F085EE93E00E94B011F5CF0895CA
:1034000081E00E9404180E94DC1980FDFCCF0E941C
:10341000931924E0969587952A95E1F7BC0180E001
:1034200090E00E94302620E030E040E85DE30E941A
:10343000912620E030E040EC51E40E94D22708952C
:1034400081E10E9404180E94DC1980FDFCCF0E94DB
:1034500093199695879596958795BC0180E090E0A5
:103460000E94302620E030E040E05DE30E9491269B
:1034700020E030E048E452E40E94D2270895CF9340
:10348000DF93BC0188E493E00E945D12EC016DEED5
:1034900071E088E493E00E945D128C0F9D1FDF9124
:1034A000CF91089590E0FC01EE59F94F3491FC0161
:1034B000EB54F94F2491FC01EF55F94FE491EE23C1
:1034C00009F43BC0332339F1333091F038F4313013
:1034D000A9F0323001F584B58F7D12C0373091F0FC
:1034E0003830A1F03430B9F4809180008F7D03C072
:1034F000809180008F77809380000DC084B58F7796
:1035000084BD09C08091B0008F7703C08091B00066
:103510008F7D8093B000F0E0EE0FFF1FE357F94F6F
:10352000A591B4918FB7F894EC91611103C02095E7
:103530002E2301C02E2B2C938FBF08951092A6022C
:103540001092A502109222031092440310922003BD
:1035500081E080931F031092FA0261E082E10E94F1
:10356000521A61E083E10E94521AE9EBF0E0808197
:103570008E7F808380818D7F808388E48093B800F4
:1035800085E48093BC0008958F929F92AF92BF9282
:10359000CF92DF92EF92FF926B017C010E94701735
:1035A0004B015C01C114D104E104F104F1F00E946B
:1035B0007017DC01CB0188199909AA09BB09883E5B
:1035C0009340A105B10570F321E0C21AD108E108CA
:1035D000F10888EE880E83E0981EA11CB11CC1146E
:1035E000D104E104F10419F7DDCFFF90EF90DF90F3
:1035F000CF90BF90AF909F908F9008952FB7F89481
:10360000609185047091860480918704909188046C
:103610002FBF0895CF92DF92EF92FF92CF93DF9367
:10362000D82F0E94FE1A6B017C0181E0D11180E04D
:1036300080936804C0E00E94FE1AAB01BC014C19E3
:103640005D096E097F09403D57406105710580F4B1
:10365000C1110EC0A8950E946A04909167049770EA
:10366000933049F7C1E0809168048D13E3CFE3CF35
:103670008C2FDF91CF91FF90EF90DF90CF90089546
:103680001F920F920FB60F9211242F933F938F9397
:103690009F93AF93BF938091850490918604A091EE
:1036A0008704B09188043091840423E0230F2D37E0
:1036B00020F40196A11DB11D05C026E8230F029636
:1036C000A11DB11D209384048093850490938604EA
:1036D000A0938704B09388048091890490918A0410
:1036E000A0918B04B0918C040196A11DB11D809313
:1036F000890490938A04A0938B04B0938C04BF91A7
:10370000AF919F918F913F912F910F900FBE0F908E
:103710001F9018951F920F920FB60F9211242F939E
:103720003F934F935F936F937F938F939F93AF9349
:10373000BF93EF93FF93E0912201F091230109954C
:10374000FF91EF91BF91AF919F918F917F916F9179
:103750005F914F913F912F910F900FBE0F901F904F
:1037600018951F920F920FB60F9211242F933F932B
:103770004F935F936F937F938F939F93AF93BF9379
:10378000EF93FF93E0912001F09121010995FF91C2
:10379000EF91BF91AF919F918F917F916F915F91C9
:1037A0004F913F912F910F900FBE0F901F90189542
:1037B0004F925F926F927F92EF92FF920F931F93BF
:1037C000CF93DF93CDB7DEB7A1970FB6F894DEBFE6
:1037D0000FBECDBF7C01FA01CB0119A2223008F443
:1037E0002AE08E010F5D1F4F422E512C612C712C4F
:1037F000BF01A30192010E949828F901CA0101505A
:1038000011096A3014F4605D01C0695CD8016C93E1
:10381000232B242B252B61F7B801C7010E945D12D1
:10382000A1960FB6F894DEBF0FBECDBFDF91CF914A
:103830001F910F91FF90EF907F906F905F904F904E
:103840000895DC01ED91FC910190F081E02D099447
:10385000CF92DF92EF92FF92CF93DF936C01990F9B
:10386000EE08FF08F7FE16C06DE288E493E00E94C0
:10387000211CEC0144275527BA014C195D096E093A
:103880007F092AE088E493E00E94D81B7C01EC0EBB
:10389000FD1E08C02AE0B701A60188E493E00E945B
:1038A000D81B7C016DEE71E088E493E00E945D120C
:1038B0008E0D9F1DDF91CF91FF90EF90DF90CF9005
:1038C00008950C945D12FC01838187708860838366
:1038D00084818F71806284836783CF0108950F9301
:1038E0001F93CF93DF93EC016115710561F0FB012C
:1038F00001900020E9F73197E61BF70BE931F1055C
:1039000018F0E9E101C0E0E00E2F10E0C80123E06B
:10391000880F991F2A95E1F79B819770892B8B83DC
:103920008C818F718C83EE2329F0A801CE0107963C
:103930000E94E128FE01E00FF11F1782CE01DF9106
:10394000CF911F910F91089591E59CBD91E09DBD90
:103950002A98E3E2F0E03197F1F78EBD00000DB454
:1039600007FEFDCF8EB5FB019FEF4150C8F022232B
:1039700061F09EBD00000DB407FEFDCF8EB5611550
:10398000710599F380833196F0CFDF011196808124
:103990008EBD00000DB407FEFDCF8EB5FD01E5CF55
:1039A0002A9AE3E2F0E03197F1F70895CF93DF939D
:1039B0001F92CDB7DEB7698320E041E0BE016F5FA3
:1039C0007F4F0E94A41C0F90DF91CF9108956FE06C
:1039D00080E20E94D61C609124016F3F19F08AE2B8
:1039E0000E94D61C299A089520E040E060E070E033
:1039F0000C94A41CAF92BF92CF92DF92EF92FF92F1
:103A00000F931F93CF93DF93EC018A81909127024C
:103A100090FF0CC08F3F79F08BE397E09F938F93DB
:103A20000E9424040F900F9010E0D0C08F3F19F037
:103A30000091460301C00FEF8091450388834B81BD
:103A400042FD06C046954695469517E0140F01C005
:103A500010E280E090E0892B21F080E090E00E946D
:103A60000000299883E092E00197F1F76EE080E290
:103A70000E94D61C8BE891E00197F1F7602F8AE253
:103A80000E94D61C602F80E30E94D61C81EE0E940B
:103A9000F41C0F3F11F080EA01C080EB412F11327E
:103AA00008F040E220E0BE010E94A41C299AE12C0B
:103AB000F12C8FEF0E94F41C182F807321F481E009
:103AC000E81AF108B1F7299860E387E20E94D61C52
:103AD00014FF03C081EE0E94F41C0E94E71C15FB3A
:103AE000112710F981E00F3F09F080E0182BCE017B
:103AF0000E948018111103C0E5E1F2E002C0E3E684
:103B0000F1E0609128026F702B8122FBAA24A0F8BB
:103B1000322F3695369536952C81B22EB294B694C6
:103B200047E0B422CD802770DE80EA80A02FB0E08D
:103B3000F8807981111103C04AE152E002C04FEED2
:103B400051E09F938F93FF93EF931F926F931F9278
:103B5000AF921F923F931F92BF921F92CF921F92DC
:103B60002F931F92DF921F92EF92BF93AF931F92FA
:103B7000FF921F927F935F934F9380EF96E09F9306
:103B80008F930E9424048DB79EB74E960FB6F8947B
:103B90009EBF0FBE8DBF80914603081317C0111141
:103BA00010C080E090E0892B21F085E690E00E9433
:103BB00000008091280291E0980F9F70807F892BF0
:103BC00003C080912802807F80932802812FDF919B
:103BD000CF911F910F91FF90EF90DF90CF90BF900A
:103BE000AF9008952091270222FD0C94FA1C81E5E4
:103BF00097E09F938F930E9424040F900F9080E092
:103C00000895CF9380E090E0892B21F08CE090E044
:103C10000E9400002FE043E06FEF80E00E949817C1
:103C20006FEE71E00E946F1C809145048770806187
:103C300080934504809146048F71806C8093460484
:103C400081E08093490410924A0482E494E00E9447
:103C5000F21D8FE00E940A1B61E18FEF0E94301974
:103C6000C091460326E043E06FEF80E00E94981782
:103C70006C2F0E94631C0E94F21D86E00E940A1BAA
:103C8000CF910C94690FCF938091A40281FD2FC036
:103C90000E94011E8FE597E09F938F930E9424045A
:103CA0000F900F9080E090E0892B21F089E090E068
:103CB0000E9400008091A40281608093A402C4E06D
:103CC0002AE143E06FEF80E00E94981762E00E94D3
:103CD000631C0E94F21D8BE10E940A1B811102C02D
:103CE000C15071F78091A40282608093A402CF91A9
:103CF0000895CF93C82F8FEF8C0F8E3F08F5C09398
:103D00004503C093240163E082E20E94D61C61E077
:103D100081E20E94D61C0E94E71C6C2F80E090E09C
:103D20000E946F271F92CF9389EC96E09F938F9309
:103D30000E9424040F900F900F900F9081E018C004
:103D40001F92CF938BED96E09F938F930E94240454
:103D50000F900F900F900F9080E090E0892B21F052
:103D60008EE690E00E9400008FEF8093450380E094
:103D7000CF910895789484B5826084BD84B58160C4
:103D800084BD85B5826085BD85B5816085BD809126
:103D90006E00816080936E0010928100809181009E
:103DA0008260809381008091810081608093810096
:103DB000809180008160809380008091B100846058
:103DC0008093B1008091B00081608093B0008091B9
:103DD0007A00846080937A0080917A008260809378
:103DE0007A0080917A00816080937A0080917A00D5
:103DF000806880937A001092C100A89580E090E0DE
:103E0000892B11F00E940000E0915803F0915903B2
:103E100082E08083E0915403F09155031082E09199
:103E20005603F091570380E1808310926003E09184
:103E30005C03F0915D0386E08083E0915A03F0918A
:103E40005B03808180618083E0915A03F0915B0382
:103E5000808188608083E0915A03F0915B038081C8
:103E600080688083E0915A03F0915B0380818F7DAD
:103E7000808389E394E09F938F930E942404809130
:103E8000A4028D7F8093A4020F900F9080E090E0B9
:103E9000892B51F08CE294E09F938F930E9424042D
:103EA0000E9400000F900F9041E050E063E071E04D
:103EB00083EA92E00E944F276FEF81E090E00E943A
:103EC0006F27809128028F788093280210921E021B
:103ED00010921D028CE191E00E94F80383E49EE1C0
:103EE00090932B0280932A021F921F921F921F927F
:103EF00087EF93E09F938F930E9424040E94FE1A01
:103F00000F900F900F900F900F900F900E94FE1A3D
:103F10000E946A04A8958091270282FFF7CF8FE163
:103F200094E09F938F930E9424040E94890F0F9026
:103F30000F908091270282FB882780F91F928F9330
:103F400087E094E09F938F930E942404A8950F909C
:103F50000F900F900F90A8950E946A040E94F00A9B
:103F60000E947911F8CFCF92DF92EF92FF92CF9318
:103F7000E8E4F3E01382128288EEC82E83E0D82EA4
:103F8000E12CF12CC482D582E682F78285E391E0B0
:103F90009183808385EC90E09587848784EC90E022
:103FA0009787868780EC90E0918B808B81EC90E006
:103FB000938B828B82EC90E0958B848B86EC90E0E7
:103FC000978B868B118E128E138E148E0E949E1AE2
:103FD000E5EEF3E013821282C482D582E682F78294
:103FE00087E491E09183808383E694E00E941E2021
:103FF00082E494E00E941E20E3E3F4E01382128244
:10400000C1E0C1871486138689E591E0918380839E
:1040100082E194E00E941E20E2E1F4E01682C58372
:1040200081EF93E00E941E20E1EFF3E0C68315824A
:10403000CF91FF90EF90DF90CF900895CF93DF93D3
:10404000FC01108211821282148215821682DC0118
:1040500017968AE1ED0119928A95E9F782E0838348
:10406000DF91CF910895EF920F931F93CF93DF933A
:10407000E80147FD02C034E001C034E1E42F440F01
:10408000FF0BF7FF03C0F195E195F109E32E022F35
:104090002E2FAE010E940923CE01DF91CF911F91F7
:1040A0000F91EF900895FC0188279927E8942191BA
:1040B0002032E9F3293010F02E30C8F32B3241F0D2
:1040C0002D3239F4689404C00E94C720820F911DDC
:1040D000219120532A30C0F31EF4909581959F4F73
:1040E00008951F93FC0199278827BC01E89411913A
:1040F0001032E9F3193010F01E30C8F31B3251F0C2
:104100001D3249F4689406C00E94B220610F711DEF
:10411000811D911D119110531A30B0F33EF490950A
:104120008095709561957F4F8F4F9F4F1F91089598
:10413000BB274A3031F4992322F4BDE29095819552
:104140009F4F0C94F220BB272A3051F4992342F45C
:10415000BDE290958095709561957F4F8F4F9F4FF1
:104160000C94D020592F482F372F262F660F771FFA
:10417000881F991F660F771F881F991F620F731F73
:10418000841F951F660F771F881F991F08957AE077
:10419000979F902D879F802D910D11240895BB2707
:1041A000FA01A62F6217710581059105330B30FBCB
:1041B00066F0AA27660F771F881F991FAA1FA217EC
:1041C00010F0A21B63953850A9F7A05DAA3308F040
:1041D000A95DA19336F7B111B1931082CA010C9475
:1041E0008525BB27FB015527AA27880F991FAA1FE2
:1041F000A41710F0A41B83955051B9F7A05DAA3302
:1042000008F0A95DA193009779F7B111B1931192CC
:10421000CB010C948525AEE0B0E0E1E1F1E20C9435
:104220009A278C01CA014EE04C831A83098377FFD9
:1042300002C060E070E8FB013197FE83ED83A901C5
:10424000BC01CE0101960E9437214D815E8157FD50
:104250000AC02F813885421753070CF49A01F801E0
:10426000E20FF31F10822E96E4E00C94B627ACE028
:10427000B0E0EDE3F1E20C948C277C016B018A0144
:10428000FC0117821682838181FFBDC1CE01019698
:104290004C01F7019381F60193FD859193FF819184
:1042A0006F01882309F4ABC1853239F493FD859100
:1042B00093FF81916F01853229F4B70190E00E944C
:1042C0009525E7CF512C312C20E02032A0F48B3201
:1042D00069F030F4803259F0833269F420612CC0E7
:1042E0008D3239F0803339F4216026C02260246099
:1042F00023C0286021C027FD27C030ED380F3A3099
:1043000078F426FF06C0FAE05F9E300D1124532E8C
:1043100013C08AE0389E300D1124332E20620CC069
:104320008E3221F426FD6BC1206406C08C3611F458
:10433000206802C0883641F4F60193FD859193FF11
:1043400081916F018111C1CF982F9F7D955493303A
:1043500028F40C5F1F4FFFE3F9830DC0833631F063
:10436000833771F0833509F05BC022C0F80180818A
:1043700089830E5F1F4F44244394512C540115C070
:104380003801F2E06F0E711CF801A080B18026FFA9
:1043900003C0652D70E002C06FEF7FEFC5012C8771
:1043A0000E947A252C0183012C852F77222E17C09D
:1043B0003801F2E06F0E711CF801A080B18026FF79
:1043C00003C0652D70E002C06FEF7FEFC5012C8741
:1043D0000E946F252C012C852068222E830123FC4E
:1043E0001BC0832D90E048165906B0F4B70180E257
:1043F00090E00E9495253A94F4CFF50127FC859131
:1044000027FE81915F01B70190E00E949525311050
:104410003A94F1E04F1A51084114510471F7E5C084
:10442000843611F0893639F5F80127FF07C060811D
:104430007181828193810C5F1F4F08C060817181FF
:10444000072E000C880B990B0E5F1F4F2F76722ED4
:1044500097FF09C090958095709561957F4F8F4F1C
:104460009F4F2068722E2AE030E0A4010E94CD25E3
:10447000A82EA81844C0853729F42F7EB22E2AE032
:1044800030E025C0F22FF97FBF2E8F36C1F018F42F
:10449000883579F0B4C0803719F0883721F0AFC083
:1044A0002F2F2061B22EB4FE0DC08B2D8460B82E4C
:1044B00009C024FF0AC09F2F9660B92E06C028E0CD
:1044C00030E005C020E130E002C020E132E0F80138
:1044D000B7FE07C060817181828193810C5F1F4F9D
:1044E00006C06081718180E090E00E5F1F4FA401E3
:1044F0000E94CD25A82EA818FB2DFF777F2E76FED3
:104500000BC0372D3E7FA51450F474FE0AC072FC18
:1045100008C0372D3E7E05C0BA2C372D03C0BA2CFB
:1045200001C0B52C34FF0DC0FE01EA0DF11D8081E4
:10453000803311F4397E09C032FF06C0B394B394BE
:1045400004C0832F867809F0B39433FD13C030FF85
:1045500006C05A2CB31418F4530C5B18B32CB314C4
:1045600068F4B70180E290E03C870E949525B394FF
:104570003C85F5CFB31410F43B1801C0312C34FF47
:1045800012C0B70180E390E03C870E9495253C85EE
:1045900032FF17C031FD03C088E790E002C088E514
:1045A00090E0B7010CC0832F867859F031FF02C02C
:1045B0008BE201C080E237FD8DE2B70190E00E94FE
:1045C0009525A51438F4B70180E390E00E94952565
:1045D0005A94F7CFAA94F401EA0DF11D8081B70136
:1045E00090E00E949525A110F5CF332009F451CE1B
:1045F000B70180E290E00E9495253A94F6CFF7014A
:104600008681978102C08FEF9FEF2C96E2E10C9498
:10461000A8274F925F926F927F929F92AF92BF9224
:10462000CF92DF92EF92FF920F931F93CF93DF937E
:10463000CDB7DEB729970FB6F894DEBF0FBECDBF5A
:104640006A01122FB02E2BE3201720F0FF24F394E1
:10465000F00E02C0BCE3FB2E0F2D27E0AE014F5F32
:104660005F4F0E949724AC018981982F99709130F7
:1046700031F0E1FC06C0E0FE06C090E205C09DE21C
:1046800003C09BE201C090E0EE2DE07183FF3CC0CF
:10469000911102C083E001C084E0811718F4212F3A
:1046A000281B01C020E0E1110BC0F601822F30E28F
:1046B000882319F031938150FBCFC20ED11C20E02A
:1046C000992329F0D6019C93F60131966F01C6011A
:1046D0000396E2FE0AC03EE4D6013C9341E4119603
:1046E0004C93119712963C9306C03EE6F601308338
:1046F00041E641833283FC01322F40E2332309F447
:1047000042C041933150FACF82FF44C0911102C0A0
:1047100083E001C084E0811718F4212F281B01C019
:1047200020E0E1110BC0F601822F30E2882319F05E
:1047300031938150FBCFC20ED11C20E0992329F088
:10474000D6019C93F60131966F01C6010396E2FEF5
:104750000BC039E4D6013C933EE411963C9311978B
:1047600036E412963C9307C039E6F60130833EE604
:10477000318336E63283FC01322F40E2332319F0D5
:1047800041933150FBCFFC01E20FF11D10828EEFFF
:104790009FEFB7C0F1E0911101C0F0E06F2F70E022
:1047A0001416150624F49A012F5F3F4F02C021E032
:1047B00030E0260F371FBB2029F06B2D70E06F5FB4
:1047C0007F4F02C060E070E0260F371F612F70E05E
:1047D000261737071CF4121B212F01C020E03E2DA5
:1047E000387159F4D601322F60E2332319F06D93FA
:1047F0003150FBCFC20ED11C20E0FF2331F0D60197
:104800009C93B6016F5F7F4F6B01E1110BC0F60106
:10481000922F30E3992319F031939150FBCFC20EC0
:10482000D11C20E09F2D940F3A81782F7071A72E14
:1048300084FF03C0313309F49150191624F49930E0
:1048400018F098E001C091E0E42F852F57FF02C0D7
:10485000E0E080E06E2F782FE0E0F0E0AEE29A2E0C
:104860003A01691A71082A01461A570A0B2D10E0FD
:104870001195019511096F3F8FEF780729F4D60143
:104880009C92C60101966C014617570784F0661684
:1048900077066CF47F01E40CF51CA1E0B0E0AC0FEE
:1048A000BD1FEA0EFB1ED7011196BC9002C090E31B
:1048B000B92E615071093196C60101967C016017CD
:1048C000710724F0D601BC926C01D5CF641775072F
:1048D00041F4363320F4353321F4A11002C081E3D2
:1048E000B82EF601B082F701822F90E2882319F0EA
:1048F00091938150FBCFF701E20FF11D108280E010
:1049000090E029960FB6F894DEBF0FBECDBFDF91C1
:10491000CF911F910F91FF90EF90DF90CF90BF90BC
:10492000AF909F907F906F905F904F900895283048
:1049300008F027E03327DA01990F311D87FD9160D8
:1049400000966105710539F432602E5F3D9330E3C6
:104950002A95E1F708959F3F30F080387105610591
:1049600009F03C5F3C5F3D93913008F08068911DF9
:10497000DF93CF931F930F93FF92EF92192F987F9E
:104980009695E92F96959695E90FFF27EE53FF4FE1
:1049900099273327EE24FF24A701E7010590089407
:1049A000079428F4360FE71EF81E491F511D660FA5
:1049B000771F881F991F0694A1F70590079428F484
:1049C000E70EF81E491F561FC11D770F881F991F3C
:1049D000661F0694A1F70590079428F4F80E491F66
:1049E000561FC71FD11D880F991F661F771F06947A
:1049F000A1F70590079420F4490F561FC71FD81F31
:104A0000990F661F771F881F0694A9F78491109548
:104A1000177041F0D695C79557954795F794E79449
:104A20001A95C1F7E8E6F0E0689415901591359174
:104A30006591959105907FE27395E118F10A430B1A
:104A4000560BC90BD009C0F7E10CF11E431F561FCE
:104A5000C91FD01D7EF4703311F48A95E6CFE89417
:104A6000015030F0080F0AF40027021708F4202F35
:104A70002395022F7A3328F079E37D932A95E9F77D
:104A800010C07D932A9589F606949795679537957A
:104A900017951794E118F10A430B560BC90BD0096F
:104AA00098F023957E9173957A3308F070E37C93A8
:104AB0002013B8F77E9170617D9330F0839571E398
:104AC0007D9370E32A95E1F71124EF90FF900F9109
:104AD0001F91CF91DF91992787FD90950895FC0153
:104AE0000590615070400110D8F7809590958E0F19
:104AF0009F1F0895FC016150704001900110D8F78C
:104B0000809590958E0F9F1F0895DC01FC01672F03
:104B100071917723E1F7329704C07C916D93708394
:104B20006291AE17BF07C8F308950F931F93CF93F9
:104B3000DF93FB01238121FD03C08FEF9FEF28C08E
:104B400022FF16C0468157812481358142175307C1
:104B500044F4A081B1819D012F5F3F4F31832083B9
:104B60008C93268137812F5F3F4F3783268310C078
:104B7000EB01092F182F0084F185E02D0995892B71
:104B8000E1F68E819F8101969F838E83812F902FE6
:104B9000DF91CF911F910F910895FA01AA27283034
:104BA00051F1203181F1E8946F936E7F6E5F7F4FFA
:104BB0008F4F9F4FAF4FB1E03ED0B4E03CD0670F76
:104BC000781F891F9A1FA11D680F791F8A1F911DC9
:104BD000A11D6A0F711D811D911DA11D20D009F419
:104BE00068943F912AE0269F11243019305D31935B
:104BF000DEF6CF010895462F4770405D4193B3E044
:104C00000FD0C9F7F6CF462F4F70405D4A3318F0EA
:104C1000495D31FD4052419302D0A9F7EACFB4E09B
:104C2000A6959795879577956795BA95C9F7009753
:104C30006105710508959B01AC010A2E06945795F4
:104C4000479537952795BA95C9F7620F731F841F4B
:104C5000951FA01D08950E946D2608F481E0089517
:104C6000E89409C097FB3EF4909580957095619506
:104C70007F4F8F4F9F4F9923A9F0F92F96E9BB27BC
:104C80009395F695879577956795B795F111F8CF38
:104C9000FAF4BB0F11F460FF1BC06F5F7F4F8F4FA3
:104CA0009F4F16C0882311F096E911C0772321F099
:104CB0009EE8872F762F05C0662371F096E8862F31
:104CC00070E060E02AF09A95660F771F881FDAF788
:104CD000880F9695879597F90895990F0008550FB5
:104CE000AA0BE0E8FEEF16161706E807F907C0F072
:104CF00012161306E407F50798F0621B730B840B7A
:104D0000950B39F40A2661F0232B242B252B21F453
:104D100008950A2609F4A140A6958FEF811D811DF3
:104D200008950E94A4260C9415270E94072738F0A6
:104D30000E940E2720F0952311F00C94FE260C946F
:104D4000042711240C9449270E94262770F3959F6D
:104D5000C1F3950F50E0551F629FF001729FBB2772
:104D6000F00DB11D639FAA27F00DB11DAA1F649F0E
:104D70006627B00DA11D661F829F2227B00DA11DC1
:104D8000621F739FB00DA11D621F839FA00D611D47
:104D9000221F749F3327A00D611D231F849F600D68
:104DA000211D822F762F6A2F11249F5750409AF091
:104DB000F1F088234AF0EE0FFF1FBB1F661F771F1D
:104DC000881F91505040A9F79E3F510580F00C94E8
:104DD000FE260C9449275F3FE4F3983ED4F3869572
:104DE00077956795B795F795E7959F5FC1F7FE2B88
:104DF000880F911D9695879597F9089597F99F6764
:104E000080E870E060E008959FEF80EC0895002452
:104E10000A941616170618060906089500240A941F
:104E200012161306140605060895092E0394000CA5
:104E300011F4882352F0BB0F40F4BF2B11F460FF34
:104E400004C06F5F7F4F8F4F9F4F089557FD90585D
:104E5000440F551F59F05F3F71F04795880F97FB3E
:104E6000991F61F09F3F79F08795089512161306F8
:104E70001406551FF2CF4695F1DF08C01616170627
:104E80001806991FF1CF869571056105089408955C
:104E9000E894BB2766277727CB0197F90895DC01B3
:104EA000CB01FC01F999FECF06C0F2BDE1BDF89A35
:104EB000319600B40D9241505040B8F70895DC018E
:104EC000A40FB51F4150504048F0CB01840F951FEF
:104ED0002E910E94702741505040D0F70895262F00
:104EE000F999FECF92BD81BDF89A019700B40216E0
:104EF00039F01FBA20BD0FB6F894FA9AF99A0FBE8E
:104F000008950E94C327A59F900DB49F900DA49F64
:104F1000800D911D112408952F923F924F925F9220
:104F20006F927F928F929F92AF92BF92CF92DF92B9
:104F3000EF92FF920F931F93CF93DF93CDB7DEB71E
:104F4000CA1BDB0B0FB6F894DEBF0FBECDBF0994B2
:104F50002A88398848885F846E847D848C849B8409
:104F6000AA84B984C884DF80EE80FD800C811B8117
:104F7000AA81B981CE0FD11D0FB6F894DEBF0FBE46
:104F8000CDBFED010895A29FB001B39FC001A39FC3
:104F9000700D811D1124911DB29F700D811D112472
:104FA000911D08955058BB27AA270E94EA270C9408
:104FB00015270E94072738F00E940E2720F039F4A9
:104FC0009F3F19F426F40C9404270EF4E095E7FBB8
:104FD0000C94FE26E92F0E94262758F3BA17620781
:104FE00073078407950720F079F4A6F50C944827F9
:104FF0000EF4E0950B2EBA2FA02D0B01B9019001F4
:105000000C01CA01A0011124FF27591B99F0593F37
:1050100050F4503E68F11A16F040A22F232F342F7F
:105020004427585FF3CF469537952795A795F040CD
:105030005395C9F77EF41F16BA0B620B730B840BE2
:10504000BAF09150A1F0FF0FBB1F661F771F881F9A
:10505000C2F70EC0BA0F621F731F841F48F48795F2
:1050600077956795B795F7959E3F08F0B0CF9395E4
:10507000880F08F09927EE0F9795879508950E945D
:105080002E2788F09F5798F0B92F9927B751B0F085
:10509000E1F0660F771F881F991F1AF0BA95C9F7BC
:1050A00014C0B13091F00E944827B1E008950C94EB
:1050B0004827672F782F8827B85F39F0B93FCCF39E
:1050C000869577956795B395D9F73EF49095809539
:1050D000709561957F4F8F4F9F4F08950E946D2669
:1050E00008F48FEF08950E946D26880B990B0895A0
:1050F000991B79E004C0991F961708F0961B881F2A
:105100007A95C9F78095089597FB072E16F40094B9
:1051100007D077FD09D00E94C22807FC05D03EF4D5
:10512000909581959F4F0895709561957F4F089553
:10513000A1E21A2EAA1BBB1BFD010DC0AA1FBB1F9B
:10514000EE1FFF1FA217B307E407F50720F0A21B0D
:10515000B30BE40BF50B661F771F881F991F1A947A
:1051600069F760957095809590959B01AC01BD01A4
:10517000CF010895B7FF0C9481270E948127821BDD
:10518000930B0895AA1BBB1B51E107C0AA1FBB1FAD
:10519000A617B70710F0A61BB70B881F991F5A95C3
:1051A000A9F780959095BC01CD010895EE0FFF1FE2
:1051B0000590F491E02D099481E090E0F8940C942E
:1051C000F028FB01DC014150504048F001900D9265
:1051D0000020C9F701C01D9241505040E0F70895EA
:0451E000F894FFCF71
:1051E400FFFFFF00FCE1A8A835080D0867092D0999
:1051F4000A09AF0883087108DA099009C80A000A85
:1052040095179517FF1F1C1F1E1F1E1F1F1E1F1EF5
:105214001F0000000010117D10A8105711D910B7FD
:1052240010CB10000000002E12FE11E203A011C4E6
:1052340011B011A1110000000075147D10E203E10A
:10524400033F0D4F4B004661696C656420726561D4
:1052540064696E672074656D7065726174757265DA
:105264002066726F6D2073656E736F72004661699C
:105274006C65642072656164696E672068756D6928
:10528400646974792066726F6D2073656E736F72D2
:105294000054696D65207265717565737400202012
:1052A4002020002F003A00543A20006E616E0069FD
:1052B4006E66006F76660054696D652076616C7564
:1052C400652072656365697665643A20000D0A009D
:1052D4004D7953656E736F72735F5254432B544808
:1052E40030325F73656E736F7200312E323000326C
:0C52F4002E312E31004E41434B002100B2
:00000001FF
